:06006F0042907FF47E01C7
:10007500D3EF9400EE64809480400F7DFADDFE7D21
:0A008500F7DDFEEF1F70E91E80E6B4
:01008F00224E
:10000300E4F508750907D3E508648094835027AFA6
:10001300087401A807088002C333D8FC640FF59065
:10002300AF097401A807088002C333D8FC12006F1C
:100033000508150980D0750803750904C3E508642C
:1000430080948040BBAF087401A807088002C333C3
:10005300D8FC640FF590AF097401A807088002C3A8
:0C00630033D8FC12006F1508050980D08E
:030000000200906B
:0C009000787FE4F6D8FD758109020003BA
:00000001FF
